:10000000000002209D950200C5950200C7950200E0
:10001000C9950200CB950200CD95020000000000BA
:10002000000000000000000000000000F1200200BD
:10003000D19502000000000011210200D5950200B8
:10004000B5990200D79502002D4E020089350200B5
:10005000D7950200D79502002D2F0200D7950200F8
:100060005D3D0200B53D02000D3E0200B9330200C5
:10007000D7950200D7950200D7950200D7950200C8
:10008000154C0200B11C0200D7950200D795020062
:10009000D7950200D7950200D7950200D7950200A8
:1000A000D7950200D7950200D7950200653E020061
:1000B000D7950200D7950200000000000000000064
:1000C000D7950200D7950200D795020001350200AE
:1000D000D7950200D7950200D79502005D5E020019
:1000E000D7950200000000000000000000000000A2
:1000F00000000000D79502000000000069340200F3
:1001000000000000000000000000000000000000EF
:1001100000000000000000000000000000000000DF
:1001200000000000000000000000000000000000CF
:1001300000000000000000000000000000000000BF
:020000021000EC
:10000000EFBEADDE000000000000000000000000B8
:1000100000000000000000000000000000000000E0
:1000200000000000000000000000000000000000D0
:1000300000000000000000000000000000000000C0
:1000400000000000000000000000000000000000B0
:1010000018D8050000000000F54A010000D90500CD
:1010100020D8050000000000F54A010000D90500B5
:10102000782A060000000000B93A0100BCDE050085
:1010300024D8050000000000ED3A0100E4DE0500C0
:101040002CD8050000000000D53E01009CDE050004
:101050007CD20500010000003D63010080E4050032
:1010600074D20500010000000574010064FA050057
:101070006CD2050001000000CD7301003CF70500B3
:1010800078E4050002000000616301008CE50500C2
:10109000DCDF050001000000214C010018E0050024
:1010A0005CE1050001000000D94D01006CE1050084
:1010B00064E105000100000019510100DCE10500B8
:1010C000E8D7050001000000593E01006CDD050075
:1010D000F0D7050001000000F13A010090D80500AA
:1010E000F8D7050001000000514601008CD9050029
:1010F00000D8050001000000093D010070D805007E
:1011000008D8050001000000E93C0100A8DD050049
:1011100010D8050001000000E53B010030DE0500AD
:10112000E4DF0500010000009D4C0100ECDF05003C
:101130007CD2050002000000D55E0100B15E010016
:101140000D340100C9380100DCE305006CD2050054
:1011500002000000C9720100E17101000D340100BC
:10116000C93801000000000074D205000200000030
:1011700035730100E17101000D340100C93801002F
:1011800000000000A92F0100A136010010B5054C98
:10119000237833B9044B13B10448AFF30080012323
:1011A000237010BDC809002000000000AC840600B8
:1011B00008B5034B1BB103490348AFF3008008BDDA
:1011C00000000000CC090020AC840600A3F5803AA2
:1011D000704700BF174B002B08BF134B9D46FFF70E
:1011E000F5FF00218B460F461348144A121A06F0E9
:1011F000A3FF0E4B002B00D098470D4B002B00D0C7
:1012000098470020002104000D000D48002802D05E
:101210000C48AFF3008006F04DFF2000290000F0DD
:1012200013F806F021FF00BF0000080000000000D6
:101230000000000000000220C8090020D4DD0120C9
:10124000000000000000000008B500F043F802F0C4
:1012500063FA02F045FA18F025FC00F045F803F0B7
:10126000ABFC01F081FF01F0FDFE01F097FEFEE70F
:1012700030BF704700B54FF0A0430C2283B0C3F8D5
:101280003C2711F069FAB8B113F068FD002011F0A5
:10129000B9FA11F0FFFA0028FBD00B4B1B689847F6
:1012A0000A4B1B6898470A4B1B6801934EF6602057
:1012B00003B05DF804EB184711F054FA0028E3D0AE
:1012C00011F05CF9E0E700BFD0CA0500B4CA050020
:1012D00094CA050008B500F01FF8032010F080FF45
:1012E000BDE80840FFF7C6BF08B5094B09481B68B1
:1012F000984701F071FE20B9BDE80840002000F0D9
:10130000BBBB00F0C1F8BDE80840002000F0B4BB52
:1013100018CB0500C53501004FF08053D3F83021BC
:101320000D2A08D0FF224FF01023D3F80832DBB289
:1013300093420DD17047D3F83431022B01D95A2290
:10134000F1E7174AD35C002B0CBFFF225A22EAE7D1
:10135000144B012110B4C3F80415D3F8001400296C
:10136000FBD04FF010200024D0F8081221F0FF012C
:101370000A430C49C0F80822C3F80445D1F80034E8
:10138000002BFBD0BFF34F8F0749084BCA6802F40C
:10139000E0621343CB60BFF34F8F00BFFDE700BF98
:1013A00084CA050000E0014000ED00E00400FA05F9
:1013B000024A136801331360704700BFE809002038
:1013C000014B187813F09CBCE409002010B5114BB8
:1013D000044693E8070084B001AB83E807000E4998
:1013E0000294184613F02CFC38B90C4813F062FC38
:1013F00050B913F051FC04B010BD11F0BFF807480C
:1014000013F058FC0028F4D011F0B8F813F044FCA5
:1014100004B010BD88CA0500B1130100E409002022
:10142000F0B50478631E012B83B01ED90CB103B054
:10143000F0BD134F3B680DF107001E885D8811F069
:1014400011F8104B1A78BAB9731CED1AC5F30A05D6
:101450003DB13A689DF807101644C3F30A03317191
:10146000138001F043FE03B0F0BD3721002003B02C
:10147000BDE8F04000F0ECB91C7003B0F0BD00BF57
:1014800000000020F011002010B50D4C0FCC8AB0E8
:101490000DF1100CACE80F0094E803008CE8030099
:1014A0000848094B00934FF40064CDE90140074A16
:1014B00003940623694604A810F050FF0AB010BD3B
:1014C0009CCA0500F4190020F41100202114010029
:1014D00008B510F0B7FFBDE8084011F029B800BF0B
:1014E00079B138B50446451801E0AC4207D014F88C
:1014F000010B10F0E3FF0028F7D01B2038BD0020BF
:1015000038BD0020704700BF014B1B680360704767
:10151000F4210020054B1B68984288BF03F1FF337C
:10152000181A884234BF002001207047F42100209F
:1015300010B5114B114A124884B0002402A9CDE91C
:10154000023412F015FB044698B90E4A0C48D2F842
:10155000102501234FF47A51D2B221FA02F20093FE
:10156000002112F0CFFB064812F0A4FB204604B085
:1015700010BD11F003F8E8E7070000078915010026
:10158000C0CA050000A00040B0F5A07F03D1024A08
:101590001368013313607047F4210020034B044AA1
:1015A0001B68D3F80413C3F8082370470400002015
:1015B00003000F00034B1B684FF48032C3F8042371
:1015C000704700BF04000020024BA02283F80B23C9
:1015D000704700BF00E100E0024B1B68D3F8040530
:1015E000704700BF04000020081A48BF00F1807057
:1015F000704700BF014B1860704700BF00220020F9
:101600009FED010A704700BF286BEE46704700BF90
:101610000F4BF0B41B680F4ED3F804353568B5EBAB
:10162000D33F4FEAD3340DD80B4D2D68346004EB13
:1016300045240460C3F30E034FF400400B60F0BC7C
:1016400010607047044F3D6801353D60EEE700BF14
:1016500004000020FC210020F8210020144BF0B4ED
:101660001D686423D5F8046502E013F0FF0305D07C
:10167000D5F80445A64203F1FF33F6D00D4E356888
:10168000B5EBD43F4FEAD4330DD80B4D2D68336002
:1016900003EB45230360C4F30E044FF400430C60D6
:1016A000F0BC13607047044F3D6801353D60EEE7C4
:1016B00004000020FC210020F821002008B5054886
:1016C00011F020FE034811F0E7FD034B00221A60E1
:1016D00008BD00BF0400002000220020054B1B684D
:1016E00002461A440448012322F07F42002111F0EF
:1016F00015BE00BF0C0000200400002010B50A4BEE
:101700000A4C0B4A93E8030082B000230090ADF826
:10171000041008482360694611F076FD10B90548A9
:1017200011F0E4FD02B010BDC8CA0500002200207F
:10173000391701000400002018B9024B1B6803B1DF
:10174000184770470022002007EE900ADFED1A6A62
:101750001A4BB8EE677A70B5C7EE267A93E80300A5
:1017600082B0174C174E00902046ADF80410FCEEE6
:10177000E77AC6ED007A11F0C5FD204611F08CFD28
:10178000114A6946204611F03FFD90B905462046B2
:1017900011F00AFE23683168D3F804250A440123B6
:1017A00022F07F422946204611F0B8FD204611F074
:1017B0009DFD02B070BD00BF286BEE46C8CA050093
:1017C000040000200C0000203917010007EE900AE9
:1017D000DFED1A6A1A4BB8EE677A70B5C7EE267A53
:1017E00093E8030082B0174C174E00902046ADF8E6
:1017F0000410FCEEE77AC6ED007A11F083FD204676
:1018000011F04AFD114A6946204611F0FDFC90B9DD
:101810000546204611F0C8FD23683168D3F8042539
:101820000A44012322F07F422946204611F076FD2A
:10183000204611F05BFD02B070BD00BF0000FA3C15
:10184000C8CA0500040000200C0000203917010060
:101850002DE9F84F1B4B197088B31B4DDFF86CA0B6
:101860008B4645F001054FF0A048BBF1000F25D095
:10187000D946102703269AF8000013F041FA642491
:10188000C8F80C754FF47A40A847013CFAD1C8F863
:10189000087564244FF47A40A847013CFAD1013E10
:1018A000E9D14FF47A744FF47A40A847013CFAD159
:1018B000B9F10109DED1BBF1000FD9D1FEE7BDE8D6
:1018C000F88F00BF0422002010CB0500E40900209F
:1018D000024B187880F00100704700BFD42200202E
:1018E000704700BF08B58646064B07480A464FF0CA
:1018F000010C714683F800C017F0DAFDB0FA80F0F1
:10190000400908BDD422002030CB050008B5124B99
:10191000186016F055FD114B114800221A7015F091
:1019200065FB38B90F4815F035FC50B915F0F4FBDC
:1019300068B908BD10F022FE0A4815F02BFC0028FB
:10194000F4D010F01BFE15F0E7FB0028F1D0BDE845
:10195000084010F013BE00BFD0220020D422002087
:1019600054CB050030CB050010B503291BD8DFE8A8
:1019700001F01B170A02144B0022BDE810400120A1
:101980001A7010F007BC104B002201201A7010F0E2
:10199000EFFBBDE810400D490D48402217F0B2BDE5
:1019A000094B00221A7010BD17F0A8FD0749044624
:1019B0004022074817F0A6FD064B04481B68214645
:1019C000BDE81040184700BFD4220020902200201C
:1019D00030CB0500D0220020023808B50D280CD8E5
:1019E000DFE800F00C110B0B0B0B1621280B0B0B77
:1019F0002C0716F0DFFC052826D008BDBDE80840FE
:101A0000002010F0C7BBBDE80840002010F0B0BBBC
:101A100014F0C6FD0028F0D110F03CFFC8B9BDE8B5
:101A2000084015F091BB15F0A7FBBDE80840002069
:101A300010F0E8BEBDE8084015F08ABB15F086FB43
:101A4000BDE8084010F0B8BBBDE80840032004F032
:101A500023BA10F005FF10F01DFF0028FBD1DEE7D0
:101A6000044AD2E90031013B41F10001C2E90031F1
:101A7000704700BFD822002008B500230D4A0E4948
:101A8000184600F067F80D4A106030B101224FF09F
:101A9000FF3100F061F930B908BD094B094A0A4825
:101AA0002A2106F0BFFA094B064A07482D2106F005
:101AB000B9FA00BF611A010010CC0500E022002035
:101AC00060CB0500F8CB05006CCB0500F0CB050022
:101AD00000B5084B83B001A9186800F077F9064AF1
:101AE0000198D2E90031C01841F1000103B05DF85E
:101AF00004FB00BFE0220020D822002070B5104C6B
:101B000084B005460E46206803A900F05FF92068FE
:101B100002A900F05BF9029A039B9A42F7D0094AA6
:101B20000299136852685B1842F100022B606A60E8
:101B300025F0DEFB0190019B336004B070BD00BF57
:101B4000E0220020D82200200B690BB14869184719
:101B5000704700BF2DE9F04F894685B0002938D085
:101B60006C4C267B0546924616B3227A824200F0E0
:101B7000CC8094F82420002A00F0C18094F8202022
:101B8000824200F0BC8094F83C20002A00F0B9802A
:101B900094F83820824200F0B48094F85420002A4F
:101BA00000F0B58094F8506086420CBF03260426EE
:101BB000042D04D8DFE805F076839003130056481F
:101BC000564B5749C01AC008000440F0020000F00C
:101BD000EFFA4FF0000B584605B0BDE8F08F06EB6A
:101BE000460204EBC2014F4844F8320040F203625F
:101BF0008A804FEA460808EB060704EBC707012274
:101C00003A733846019312F027F8D9F80010464885
:101C1000019B8142BB464FF001026AD24348814298
:101C20000DD2434A914266D8424A914265D8424A0F
:101C3000914268D8414A914294BF092208228DF806
:101C4000082099F805200397032A4FF000018DF82A
:101C5000091098BF3A49464494BF8A5C032204EBBA
:101C6000C6048DF80A2099F804208DF80B20C4F8DA
:101C700010A0344A63613846257202A911F078FF3A
:101C80000028A8D0254B24482F49C01AC0084FF07F
:101C9000000B00042A4640F0020084F80CB000F06B
:101CA00027FA98E706EB460204EBC201274844F8FE
:101CB00032004FF480628A804FEA46089BE706EBC9
:101CC000460204EBC201224844F8320040F20142CD
:101CD0008A804FEA46088EE706EB460204EBC20113
:101CE0001C4844F8320040F202428A804FEA46081B
:101CF00081E70022A3E70222A1E703229FE7012652
:101D000056E7022654E7042299E7002650E7032607
:101D10004EE700BFE422002000850600B0840600E4
:101D200018CC050000B001400024F40000127A0035
:101D3000FF083D007F841E003F420F0067890900B5
:101D400084CC0500491B010058CC050000800040F0
:101D50000090004000A0004050B310B5044682B08F
:101D600001B30368002AD3F81025D2B24FEA117CE0
:101D7000C2F120034FEA011121FA02F10CFA03F338
:101D8000A2F1200241EA03012CFA02F242EA010226
:101D90004FF0010140F20113009118BF0B460021E2
:101DA00011F0B0FF204611F085FF002002B010BDF9
:101DB0006FF00A00704700BF20B108B511F088FF2E
:101DC000002008BD6FF00A00704700BF58B110B581
:101DD0000C4629B1012111F089FF2060002010BDBF
:101DE0006FF00A0010BD6FF00A00704738B5A0B15F
:101DF0000B4D0446002308462B7000F0E1FB094818
:101E0000C5F80C4800F0F2FB044608B1204638BD86
:101E1000054800F02DFD204638BD0724204638BD7A
:101E2000C027002038850600A0CC050030B499B149
:101E30000D490E4D491BC90813D00D4C002302E07B
:101E4000013399420AD034F823208242F8D118464F
:101E500055F8300030BC7047044DF9E7002030BC25
:101E600070470846F6E700BF28850600B0840600E4
:101E7000D4DD0120094B013903EBC00003290BD845
:101E8000DFE801F0040208060420704702207047D2
:101E9000407970470079704700207047B084060091
:101EA000704700BF2DE9F0438B4DD5E901239A42DD
:101EB00085B066D00023C5F81838BFF34F8FAC68E3
:101EC000C4F30803D91C05EB810215F8211048075B
:101ED0001AD56E68137803F00303012B4BD0022B45
:101EE00003D15388033404EB9314C4F30803D5F8E7
:101EF0001808D91C05EB810230B9A64240F2E980EE
:101F000015F821104907E5D405EB8301621CA31CD9
:101F1000C2F30802C3F30803C968019105EB82020A
:101F200005EB8303D268DB6801F003010229CDE9E8
:101F3000022304F103067DD0012926D0D5F81048EC
:101F40003CB1236820469B689847E3681C68002CD6
:101F5000F7D1624B62486349C01AC008000440F0E0
:101F6000020000F025F9AE686868801B18BF0120E8
:101F700005B0BDE8F08313880334C3F383131C4416
:101F8000B3E7002005B0BDE8F083BDF80420564853
:101F9000C2F38313062B28BF062363F3891203338E
:101FA00003F00F018900ADF8042000F021FB074683
:101FB0000028C3D000F066FB00230C2201A938469C
:101FC00000F090FBBDF8043013F4707F1AD06FF06E
:101FD00002094FF00C08A9EB0409C6F3080103310C
:101FE0004346042205EB8101384600F07BFBBDF837
:101FF00004300136C3F3831309EB0602934208F160
:102000000408EAD8D5F810485CB1E3685A7920464C
:1020100039465AB123681B689847E3681C68002C4E
:10202000F3D1384600F032FBAE609DE71C68002C0F
:10203000EBD1F6E7BDF806302B48C3F38918B8F5A5
:10204000FA7F444628BF4FF4FA7404F10C0164F39C
:102050008F13C1F30901ADF8063000F0C9FA074645
:1020600000283FF46BAF00F00DFB002301A90C2208
:10207000384600F037FBF343C3F308030133B4EBF6
:10208000830F4FEA830119D95FFA81F9641AC6F305
:102090000801033105EB81014A4638460C23E4B2BE
:1020A00000F020FB114909F10C032246384600F0EC
:1020B00019FB08F1030806EB9806A3E7C6F308012D
:1020C0000331224605EB81010C23384600F00AFB60
:1020D000EFE7AE604CE700BFC0270020B0840600E9
:1020E0000085060088CC050038850600CC27002036
:1020F0002DE9F8432D4F044600200E46914610F07E
:102100002BFAD7E9015303F500735B1B032B43D96B
:10211000C5F3080808F10308452347F828300020D4
:102120002B1D7B6010F020FAEB1CC3F3080307EBB8
:1021300083030021C3F80C9007F61C0010F064FA2A
:1021400080F310036A1CC2F3080207EB82021B042F
:1021500043EA1443D3600235D7F80C38E4009847BB
:10216000C5F3080504F0380407EB850544F0410485
:1021700044EA8626E86047F828603B781BB9FFF7F9
:102180008FFEBDE8F883FFF78DFE0028F7D0FFF73C
:1021900089FE0028F7D1F2E7012107F61C0010F0B4
:1021A0003DFA002010F0E0F9E7E700BFC02700206B
:1021B0002DE9F041294F044600200E4610F0CCF9DD
:1021C000D7E9015303F500735B1B022B3CD9C5F320
:1021D000080808F10308052347F828300020EB1C05
:1021E0007B6010F0C1F9002107F61C0010F00CFA1A
:1021F00080F310036A1CC2F3080207EB82021B047F
:1022000043EA1443D3600235D7F80C38E40098470A
:10221000C5F3080504F0380407EB850544F0010414
:1022200044EA8626E86047F828603B781BB9FFF748
:1022300037FEBDE8F081FFF735FE0028F7D0FFF745
:1022400031FE0028F7D1F2E7012107F61C0010F05B
:10225000E5F9002010F088F9E7E700BFC02700206B
:1022600030B4124DD5F8101804460020B1B10B4619
:1022700001E01B6853B1DB681A798242F9D1013061
:102280000A28F3D14FF0FF3030BC7047E26810717C
:10229000CB68196811601C6030BC7047E368187126
:1022A000C5F8104830BC1960704700BFC027002037
:1022B00038B5084BD3F8104801251D704CB1236880
:1022C000E2685B68557120469847E3681C68002CFB
:1022D000F5D138BDC027002070B5C38886B005464B
:1022E0000E46002B53D1297A05294ED06B7A002B4C
:1022F00040D12B4A2B6812682A49B3FBF2FC2A4AC8
:102300000968BCFBF1F4A2FB0432D00A4FF4616E01
:10231000264B02460EFB104001FB14CCA3FB0043EE
:102320005B094FF47A7EC3EB03140EFB0CFCA0EBAD
:1023300084000090BCFBF1F001FB10C40EFB04F420
:102340000190B4FBF1F430461949029400F0A6FA6A
:102350002A7A184BA88853F8222005920021FFF70B
:1023600065FD059A14490346304606B0BDE8704045
:1023700000F094BAA888FFF77DFD104B104953F880
:102380002020304600F08AFAB3E706B070BD0D4950
:1023900000910D4A0D49304600F080FAA3E700BFD6
:1023A000FC310020F8310020C5B3A29189888888CB
:1023B000D4CC05007CCD0500F0CC050058CD05003F
:1023C00058D20500CCCC0500ACCC0500B4CC05003F
:1023D0002DE9F04385B01D460C9C002394F80C9029
:1023E000237380460E46174621462846FFF774FFA2
:1023F000062F09D8DFE807F0042E343B444F1F00B6
:102400004146204600F04AFA2B7A052B05D06B7A1C
:102410005BB92749204600F041FA204600F032FA25
:1024200084F80C9005B0BDE8F083224A224920468A
:1024300000F034FAEDE77369039333690293F368AC
:102440000193B3680093D6E900234146204600F08B
:1024500025FAD9E732684146204600F01FFAD3E753
:10246000D6E900234146204600F018FACCE7B368CD
:102470000093D6E900234146204600F00FFAC3E757
:10248000F3680193B3680093D6E9002341462046E0
:1024900000F004FAB8E733690293F3680193B36874
:1024A0000093D6E900234146204600F0F7F9ABE758
:1024B000A4D20500CCCC050058D20500082900D9CB
:1024C00070472DE9F04F1D4683B000241B7B2C7311
:1024D0000E4607462946104690460193DFF8D0B0D5
:1024E000DFF8D0A0FFF7F8FE05E03A5D013400F018
:1024F000D5F9082C09D0A64251462846F5D85946A8
:10250000013400F0CBF9082CF5D12449DFF8A8B04C
:10251000234CDFF8A8A0284600F0C0F94FF00009CE
:1025200017E017F80910481C7E294FF02E02C0B2A0
:1025300006D810F80A2012F0970F14BF0A462E2270
:102540002146284609F1010900F0A8F9B9F1080F60
:102550000AD04E45E5D85946284609F1010900F050
:102560009DF9B9F1080FF4D198F80830052B02D085
:1025700098F809305BB90B49284600F08FF92846D6
:1025800000F080F9019B2B7303B0BDE8F08F064A81
:102590000649284600F082F9EDE700BF08CD0500A6
:1025A0000CCD0500A4D20500CCCC050058D2050006
:1025B00004CD0500FCCC0500F8CC0500B3020600F4
:1025C000074A0849012390420B6005D94008904210
:1025D0004FEA4303FAD80B60034B1860704700BF03
:1025E00040420F00FC310020F831002000F0E2B83A
:1025F0002DE9F041058A0331043D4E198046B6FBB2
:10260000F5F600F0FBF8A0B3F6B24FF48073013E8C
:1026100004468380C580C0F800802BD00346002587
:1026200008E06279AE4202F1010262713860C0F8DE
:1026300000801FD040461F4600F0E0F801350346F9
:102640000028EED16779791E17D0224601339942CE
:102650001268FBD1D2F800805FB12668002501E046
:102660003446366821464046013500F0EBF8AF426B
:10267000F6D800242046BDE8F0812068214600F00D
:10268000E1F8F6E7012104300FF0C8BF2DE9F04171
:102690000121044604300FF0CDFF10F0FF0301D0FC
:1026A000BDE8F0816779791E16D022460133994240
:1026B0001268FBD1D2F80080002FF1D026680025E7
:1026C00001E03446366821464046013500F0BAF84C
:1026D000AF42F6D8BDE8F08120682146BDE8F04160
:1026E00000F0B0B82DE9F843C7888846417907FB68
:1026F00001F1043902EB030C1E1D6145154638BF7C
:10270000CD1AB7420446B6FBF7F207FB126002D8B7
:10271000013A2468FCD13E1AAE4228BF2E469DB134
:102720004FF000090430AD1B324608EB090120448C
:1027300005F0F4FCAF42B14424683E464FF000007F
:1027400028BF2E46002DEDD1BDE8F8832DE9F843D2
:10275000C7880446407907FB00F0043802EB030CFD
:102760001E1D6045154638BFC51AB7428846B6FBE0
:10277000F7F107FB116202D801392468FCD1BE1AB7
:10278000AE4228BF2E469DB14FF00009111DAD1B72
:102790003246214408EB090005F0C0FCAF42B144C9
:1027A00024683E464FF0000228BF2E46002DEDD192
:1027B000BDE8F883F8B130B4D0E901431B1B0268CF
:1027C000DBB2591E1460C9B28BB1023B651C1560A7
:1027D000DBB2217051B101680A6803F1FF3C541C5F
:1027E0000C6013705FFA8CF3FF2BF4D102680020A9
:1027F000107130BC70470E20704700BF10B5044602
:1028000000200FF0A9FED4E900231168994213D9E2
:10281000481EA368106011F801CC11791B1ADBB2B5
:10282000208AE468994200FB0C4400D21371002016
:102830000FF09AFE204610BD002400200FF094FEF9
:10284000204610BD38B5054600200C460FF084FE2A
:102850002A681368591C1160E9682A8A641AB4FB53
:10286000F2F41C70BDE8384000200FF07DBE00BFC0
:10287000836800225A60C3E904229A60DA601A6011
:10288000704700BF826842B110B5436901680446D1
:10289000006998470023A36010BD70470EB400B5CF
:1028A00082B0039921B104AB01AA019300F0B6F8FC
:1028B00002B05DF804EB03B0704700BF2DE9F04FA4
:1028C000154683B0A942DDF830900D9A0F460646B2
:1028D0009A46C0F09E800B464FF00108B3FBF5F31B
:1028E0009D4208F10108F9D9D04538BFD04612F011
:1028F0000103019302D1B9F1000F67D1B268BAF1B7
:10290000010F4FF0010406D90AF1FF3ABAF1010FA5
:1029100005FB04F4F8D8B7FBF4F39D4205D805FB9A
:1029200004F4B7FBF4F39D42F9D9DFF8ECA007E01B
:10293000AC42B4FBF5F31AD3B2681C46B7FBF3F311
:102940001AF803B0BBF10A0F04FB137728D03368E1
:10295000511CB16003F802B0D6E901329A42E7D3C4
:102960003046FFF78FFFB4FBF5F3AC42E4D2019B96
:102970009BB1B9F1000F10D02024C84509F1FF39EF
:102980000BD2B3683268591CB160D454D6E9013215
:102990009A4214D2B9F1000FEFD103B0BDE8F08F25
:1029A000511C3368B1604FF00D019954D6E90132E2
:1029B0009A42CCD33046FFF765FFB268C7E730468E
:1029C000FFF760FFB9F1000FD7D1E6E793071AD4FC
:1029D0002024B268C84502F1010190D23368B16089
:1029E0009C54D6E901329A4209F1FF3903D2B9F178
:1029F000000FEFD183E73046FFF744FFB268B9F12B
:102A0000000FE7D17BE7BAF1000F0CBF3024202480
:102A1000DFE74FF0010867E790CD0500002900F0DF
:102A200036822DE9F04FDFF86C950D7885B00646BB
:102A300090460C464FF00D0A0FE00A2DB36800F0E7
:102A40008E803268591CB160D554D6E90130984265
:102A500080F081802578002D69D00134002D66D06A
:102A6000252DEAD10027234614F8012B2D2A6CD0FE
:102A7000302A6DD02B2A61D02A2A7FD0A2F13001D2
:102A800009294FF000050BD805EB850502EB45053C
:102A900013F8012FA2F130010929A5F13005F3D96E
:102AA0002E2A1C4675D0002301E014F8012F02F0F5
:102AB000FB016829F9D0252A00F05F81583AD1B28C
:102AC000202930D8202A2ED8DFE812F021002D004E
:102AD0002D002D002D002D002D002D002D002D008E
:102AE0002D00FE0079002D002D002D002D00790015
:102AF0002D002D002D002D002D002D00BD002D00DE
:102B00002D001A012D0016012D002D002100D8F8EE
:102B10000000102201680430CDE90057C8F8000019
:102B20003046FFF7CBFE01342578002D95D1337B5D
:102B3000002B40F01C8105B0BDE8F08F234614F84F
:102B4000012B2D2A47F0040792D147F001078AE7AD
:102B500047F0020787E73046FFF794FE7AE73268CE
:102B6000591CB16002F803A0D6E901239342FFF497
:102B700068AF3046FFF786FEB36862E7D8F80020FA
:102B8000111DC8F8001015685A782E2A03F10104A7
:102B900089D16278A2F13003092B04F101044FF0CE
:102BA000000384D803EB830302EB430314F8012FE3
:102BB000A2F130010929A3F13003F3D977E7D8F85E
:102BC0000020D2F800B00432C8F800208BEAEB7283
:102BD000A2EBEB72092A40F3D981DFF8BCC30120D4
:102BE00011466329ACFB02E200F101004FEAD20278
:102BF000F6DC9842024638BF1A460292002D00F0D9
:102C0000F780BBF1000FC0F207817A0700F1048161
:102C1000B80740F10381002B40F00081BBF1000FA9
:102C2000C0F27B817A0700F18B8107F00302022A50
:102C300000F02E81CDE9005759460A223046FFF7B1
:102C40003DFE013470E7D8F80020B368176831689A
:102C5000101D5A1CC8F80000B2603022CA54D6E9D0
:102C60000123934280F0D380591C3268B1607821EF
:102C7000D154D6E901329A4280F0C4800F2F03D993
:102C80003B461B090F2BFCD84FF0805506E00F2D5B
:102C90004FEA15137FF647AFB2681D46B7FBF5F351
:102CA00019F803B0BBF10A0F05FB137751D0336855
:102CB000511CB16003F802B0D6E901309842E6D366
:102CC0003046FFF7DFFDE2E7D8F800301D78043327
:102CD0000A2DC8F80030B36800F038813268591CFA
:102CE000B160D554D6E901309842FFF41CAF3046AC
:102CF000FFF7C8FD013417E7D8F800000A2209E7FA
:102D0000D8F800301A1DC8F8002017F00107D3F8D2
:102D100000B03DD1BBF1000F03D0584606F0ACF92E
:102D20000746BD4240F2CC80202202E0BD4200F0C6
:102D3000C780B1683368481CB0605A54D6E9013086
:102D4000984205F1FF35F1D33046FFF79BFD202275
:102D5000ECE73368511CB16003F802A0D6E90132F8
:102D60009A42A4D33046FFF78DFDB2689FE7304604
:102D700005B0BDE8F04FFFF785BDB3683168581C5A
:102D8000B060CA54D6E901309842B0D20134CBE6E3
:102D90009BF80030002B00F0FB80B0685F46CBF161
:102DA00001020A2B02EB070B5FD0411CB1603168B6
:102DB0000B54D6E90130984249D217F8013F002B55
:102DC000EFD15D457FF6AFAE202702E05D453FF4D1
:102DD000AAAEB2683368511CB1609F54D6E9013085
:102DE000984205F1FF35F1D33046FFF74BFDEDE793
:102DF000B80705D5002B3FF411AFF9073FF50EAF2B
:102E000000250BE73046FFF73DFDB26836E7304658
:102E1000FFF738FDB36827E7013DF9E6F9073FF50D
:102E2000FDAE002DECD020220299A942BFF4F6AEEF
:102E3000B168481CB06030684254D6E90101814253
:102E400005F1FF3580F09180002DEDD1D8E73046B7
:102E50000292FFF717FD17F8013F002BB1D0029A3D
:102E6000B0680A2B02EB070B9FD1411CB16031689F
:102E700001F800A0D6E90110884296D33046CDE98A
:102E80000232FFF7FFFCDDE90232B0688DE77047E0
:102E9000002B7FF4CFAE8DB1302202998D427FF6A8
:102EA000C9AEB168481CB06030684254D6E901012F
:102EB000814205F1FF3562D2002DEED10025B9E641
:102EC0009BF80050002D3FF42EAE0A2DB0680ED0B6
:102ED0003368421CB2601D54D6E90130984214D2C6
:102EE0001BF8015F002D3FF41EAE0A2DF0D13368B0
:102EF000421CB26003F800A0D6E901309842E7D343
:102F00003046FFF7BFFCB068E2E73046FFF7BAFC97
:102F10001BF8015F002DD8D105E6B1683268481C66
:102F2000B060CBF1000B2D205054D6E90121914225
:102F3000FFF47BAE30460393FFF7A4FC039B74E6DB
:102F4000B1683268481CB0602B20EDE73268591C2C
:102F5000B16002F803A0D6E901239342FFF4BEAEAC
:102F60003046FFF78FFCB368B8E630460393FFF7AF
:102F700089FC039B2022002D7FF456AF40E73046AA
:102F80000393FFF77FFC039B302295E7012030E697
:102F90009B4616E790CD0500CDCCCCCC08B50DF006
:102FA00097FE002008BD00BF08B5034903484FF451
:102FB0001C7205F0B3F808BDA0CD05005007002035
:102FC0000048704750070020004870475007002015
:102FD0000048704788070020014B93F8680270474B
:102FE00050070020014B83F868027047500700200B
:102FF000F0B5194E336883B03BB3184C184F606876
:103000004FF0FF3201A90CF009FB0028F7D1019B1A
:10301000022B08D0042B4FF4FA70F0D10CF0F0FB27
:1030200001F078F8EBE74FF0FF3130680CF01EFA52
:1030300000F0F0FA054630680CF042FA00F038FB78
:103040003946436928469847D9E70CF09DF9306026
:103050000028D2D103B0F0BD103A00200032002089
:103060001032002010B540F6080082B00CF088F84D
:1030700060B1194A194B43604FF400640021448049
:1030800001701368A3F5006308301360144C154AEF
:1030900003214FF40063CDE900310346A060002115
:1030A00011480CF0E9FA206028B10CF03BFA60609E
:1030B00050B102B010BD38210120FEF7C9FB0CF061
:1030C00031FA60600028F4D13821012002B0BDE857
:1030D0001040FEF7BDBB00BF14030020ADDEADDE27
:1030E0000032002010D00500F12F0100034B58687A
:1030F00010B102210CF088BA704700BF00320020E6
:1031000000B5074A074C556883B000230193A847D0
:10311000052201A920680CF081FA00F001F9F6E718
:1031200094CA0500143A0020074B1B6853B110B530
:103130000CF01EF8044600F06FF82046BDE8104081
:103140000CF01CB8704700BF183A0020044B1B68F5
:1031500023B1044B002118680CF056BA704700BF29
:10316000183A0020143A002000B54FF4027083B0E2
:103170000CF006F8034668B11B491C4A5A604FF42C
:10318000007C0020A3F802C018700A68A2F5007243
:1031900008330A6002204FF40071CDE90010144A90
:1031A000144800210CF068FA134B1860B0B10CF011
:1031B000B9F9124B186060B100F022F810B903B0F1
:1031C0005DF804FB0921012003B05DF804EBFEF774
:1031D0003FBB38210120FEF73BFBEDE73821012002
:1031E000FEF736FBE3E700BF14030020ADDEADDEE3
:1031F00018D0050001310100183A0020143A0020CF
:1032000008B50CF0C1F8034A0346B0FA80F0136029
:10321000400908BD24BA002038B5094D4FF0FF31F0
:1032200028680CF023F908B1012038BD054B04468D
:10323000C3F8024028680CF043F9204638BD00BFAF
:1032400024BA00201C3A0020F8B5174F04460D465A
:10325000386840F621310CF009F908BB134E738829
:10326000B1885A1C891AC1F30E018D4213DA002D60
:103270000ADD611900E05A1C14F8010B33448C423A
:103280009871C2F30E03F6D17380002438680CF0F5
:1032900017F92046F8BD0921FEF7DAFA0924F5E707
:1032A00001242046F8BD00BF24BA00201C3A0020AB
:1032B000F8B5194F04460D46386840F621310CF038
:1032C000D5F818BB154E7388B1885A1C891AC1F3FA
:1032D0000E018D4215DA002D0ADD611900E05A1C3D
:1032E00014F8010B33448C429871C2F30E03F6D1EB
:1032F0007380002438680CF0E3F8FFF727FF2046BE
:10330000F8BD0921FEF7A4FA0924F3E70124FFF729
:103310001DFF2046F8BD00BF24BA00201C3A002043
:103320002DE9F041344E82B030684FF0FF310CF09F
:103330009DF8E8B9314DDFF8D080AF886C88D8F8B7
:103340000430E41BC4F30E0401A898473CB90024E0
:1033500030680CF0B5F8204602B0BDE8F081D8F82E
:103360000830019840F62131984730B10324EFE747
:103370000124204602B0BDE8F08102F093FD03284D
:1033800024D0402C1E48A0463B4628BF4FF04008A2
:10339000002205EB030C01329CF806C000F801CBBB
:1033A00001339045C3F30E03F3DCAB80FFF714FE4B
:1033B00098B9144B12489B68414698470028C6D1DB
:1033C0000B21FEF745FA0B24AF80C1E70D4B5B697B
:1033D00098470028D5D10124BAE7402C2146084857
:1033E00028BF4021FEF77CF80028B0D01B21002028
:1033F000FEF72EFA1B24ABE724BA00201C3A00206B
:1034000028BA002018CB0500B4CA05002DE9F04FFA
:10341000894685B0002900F0C4800FFA83F80023A4
:103420001188624FDFF898A10293054616461C46A4
:10343000019326E00121FFF73BFF31886B5C0A2BEB
:103440003FD00D2B3DD09AF80020022A64D0002AEC
:1034500076D13A8856498B54013292B231883A80FB
:10346000013108EA010189B2B2F5806F318004D3DD
:1034700000233B8002238AF800300134A4B2A14526
:1034800015D06B5C082B05EB0100D3D14948032113
:10349000FFF70EFF3A88002A39D131880131013413
:1034A00008EA0101A4B289B2A1453180E9D1019BAA
:1034B0001BB1414B029900225A54019805B0BDE856
:1034C000F08F3A88002AE9D09AF800B0BBF1000FDB
:1034D000C6D1394B029836490192181804F01EFEE5
:1034E000019A354B0298A7F800B013440132024408
:1034F0000A21195493B231880293013108EA01017B
:10350000022389B231808AF800300193B5E7013A8D
:1035100092B231883A80A3E73A8825498B543188A2
:103520006B5C7B2B08BF254802F101020CBF012315
:10353000002392B208BF03708AF800303A808FE708
:10354000B7F800B01A4A02F80B3031886B5C0BF107
:10355000010292B27B2B3A801ED07D2B80D117487E
:103560000378013BDBB20370002B7FF479AF029844
:103570000393114B0E490192181804F0CFFD039BE1
:10358000019A3B800C4B02981A440BF1020303444E
:103590000A2111549BB2AEE7084803780133037047
:1035A0005EE70191019805B0BDE8F08F70C600207C
:1035B00070C2002020D00500103200206CC2002014
:1035C00011000020124B10B51C682388628803F19B
:1035D000010CA2EB0C02C2F30A028A4213D99E46E6
:1035E00079B101444A1E013801E003F1010C10F8E1
:1035F000011F234482421971CCF30A03F5D11FFA4B
:1036000083FEA4F800E0BDE81040FFF76FBD00BFE7
:1036100014000020F0B5204E204F32683B6814881B
:10362000528819885B8883B0A41AC91AC4F30A04A3
:10363000ADF80420ADF80630C1F30A051CB9B5B9E0
:10364000002003B0F0BDFFF7C7FC0028F7D000F062
:103650002FF83268056940F2FF732146101D01AA58
:10366000A8473368BDF804205A8003B0F0BD02F0CB
:1036700019FC0328E4D100F01BF83A68046940F211
:10368000FF73101D29460DF10602A0473B68BDF8E7
:1036900006205A80D5E700BF00000020140000205B
:1036A000014B024A1A607047C00900202CD0050067
:1036B000014B1868704700BF18000020034B044AF4
:1036C000002818BF03461360704700BFC0090020E0
:1036D0001800002008B5FFF773FCD0F8600208BDA1
:1036E000002016F07BB900BF08B5FEF7DBFB002811
:1036F000FBD105200CF07EF8F7E700BF00B5054BC5
:1037000083B0186801A9FEF761FB019803B05DF86A
:1037100004FB00BF74C6002000B500231A462349ED
:1037200083B00420FEF716FA214A1060002836D034
:1037300001224FF0FF31FEF70FFB50BB1D491E4821
:10374000FEF754FB10BB0BF049FB4FF442700BF03B
:1037500017FD034668B11949194A5A604FF4407C75
:103760000020A3F802C018700A68A2F5407208335E
:103770000A6006204FF44071CDE90010114A12484A
:1037800000210BF079FF03B05DF804FB0EF0F6FEAC
:10379000D9E70E4B0E4A0F483E2104F043FC0E4B76
:1037A0000B4A0C483B2104F03DFC00BFECD0050067
:1037B00074C6002040420F00FD36010014030020B3
:1037C000ADDEADDED8D00500E9360100F0CB050056
:1037D000E0D0050054D0050048D005002DE9F041A7
:1037E00007464FF49A700BF0CBFC00283ED02D4AD0
:1037F0004260DFF8D0802C4B4FF49671002241805C
:103800000270D8F80020044600F1080503CBA2F5A9
:103810009672C8F800201A889B78A060E160228226
:103820003846AB7205F028FCB0F5907F06461FD9EC
:10383000284605F021FC1D4B01465B682846984749
:10384000082DA5F108000DD0164A416815F8083C6E
:10385000914221D1022B19D8418858F823200A44DB
:1038600048F82320BDE8F0410BF08CBCBDE8F081A6
:10387000721C394604F10F0004F050FC07360C4B63
:10388000AA1919889B78A9539370D1E7094B0A4A62
:103890000A48CA2104F0C6FB094B074A0748C92158
:1038A00004F0C0FBADDEADDEF4D005001C0000204E
:1038B000A4D2050094D1050008D2050018D1050056
:1038C00000D1050014030020022840F0BD802DE93E
:1038D000F04F6C4CDFF8DC91C4F800900B7889B0A5
:1038E0000F465BB1684E0D46F25C02F00302022AFD
:1038F0006FD02B7015F8013F002BF5D16349384686
:1039000006F074FA064690B3614D4FF000038DF84F
:103910000C3033787B2B3CD05E4902AB03AA304697
:1039200005F022FBA945C4F8009079D24FF00008B9
:103930004746DFF880A1DAF8001003A819B105F0B6
:1039400091FB8346B0B10AF1100AAA45C4F800A061
:10395000F1D35148FFF742FF17B1384601F072FF2B
:103960004A49002006F042FA06460028CDD109B0A7
:10397000BDE8F08F9AF80410002938D0012953D0FF
:10398000FFF796FE8369002B70D14448FFF726FFAE
:10399000E2E7304602F0DEF9074600283CD0404915
:1039A00002F04AFAD0F81080B8F1000F0CD03D496F
:1039B000384602F041FA0346002861D040463A49B1
:1039C00003AA984605F0D0FAA945C4F80090B0D3F0
:1039D000BFE7203B2B7015F8013F002B84D12B490A
:1039E000384606F003FA064600288DD1BFE7FFF7F8
:1039F0005FFE83694BBB206883680299304642466C
:103A000098470646002837D005F036FB274B01467D
:103A10005B68304698479FE7A945C4F8009085D376
:103A20001D48FFF7DBFE9BE70191FFF741FE03799D
:103A3000012BDCD0FFF73CFE8369002BA5D01A7A5E
:103A400001995B6832B9A0E770471A7A5B68022176
:103A5000002AD0D0206898420BF1010B03F110032B
:103A6000CAD09345F7DB01298FD0C5E71A7A5B6886
:103A7000002A8AD00121EDE70D48FFF7AFFE6BE782
:103A80008046A1E778C60020B402060068D205008F
:103A900030110100E0D10500B0D10500E8D10500EA
:103AA000C4D10500D0D10500DCD105001C000020E8
:103AB000FCD105000010010000B583B0FFF734FB16
:103AC000064B07485B6802219847064B019301A803
:103AD00015F0F6FF044803B05DF804FB1C0000205D
:103AE000A4D205002CD005003CD8050001F06ABB2B
:103AF00070B584B0002306460C460093FFF768FAC1
:103B0000114905466B4601AA304605F02DFAC0B2B0
:103B100002280AD1012C10D80C4885F8644004F022
:103B2000010385F8B83004B070BD95F8B8100848A6
:103B300002F086F9054804B070BD0648214602F03F
:103B40007FF9054804B070BDE0D105003CD8050000
:103B500010D205001CD2050034D8050070B50D1E2A
:103B600088B0044616460CDD194B421919889B781B
:103B70004153937005F080FA01462046FFF798FB09
:103B80000025144B0793304605F076FAD0F11E005D
:103B900017D4114B009307AACDE903324310A0EBD1
:103BA000600002900D490196204605F0BDF92046BF
:103BB00005F062FA01462046FFF77AFB284608B076
:103BC00070BD07493246204605F0AEF9EFE700BF69
:103BD000A4D205002D2D2D001801060040D20500AD
:103BE00070E0050030B587B00446FFF7E9F90546F7
:103BF000FFF7EEF902462D49204603AB14466A460C
:103C000005F0B2F9022809D0D5F8603233B319684B
:103C1000274802F015F9274807B030BD264A039B14
:103C200093420FD0254A93421AD0254B039A9A42C9
:103C300022D0244B039A9A422BD0234802F000F959
:103C40002248E9E7BDF81020462AEBD1204AC5F802
:103C500060220023174884F82432DDE71D49D7E7A6
:103C6000BDF81030462BE0D11B4AC5F86022012375
:103C7000104884F82432CFE7184B049A9A42D8D1DE
:103C80009DF81430002BD4D1154B0A48C5F860328A
:103C9000C2E79DF81030002BCFD1124AC5F8602240
:103CA0000223044884F82432B6E700BF54D205004A
:103CB0005CD205003CD80500494E4954524553504A
:103CC0004C4953544E4F4E4588D2050034D8050018
:103CD0004C11010024D0050068110100454E4552E9
:103CE000301101002CD0050010B503F059FB0BF08A
:103CF0003FFA044615F0C2FE20460BF03FFA014899
:103D000010BD00BF3CD8050000B587B0002301936B
:103D10000AF0AAFF18B11F4807B05DF804FB1E485F
:103D200029F0CAFF20B915F0E7FE38B129F0E2FF0B
:103D30000BF042F8174807B05DF804FB01A829F022
:103D4000CFF910B116F004F8F0E702A9019829F0B4
:103D5000CDFC0499114802F073F8DDE90221104806
:103D600002F06EF805990F4802F06AF8DDE90221C9
:103D7000059B0D4802F064F8019829F0C1F915F08F
:103D8000E7FF29F0B7FF0BF017F8084807B05DF818
:103D900004FB00BF34D8050008020020A8D20500AB
:103DA000C4D20500E4D2050000D305003CD80500CC
:103DB00008B5034A034B0448CA2104F033F900BF95
:103DC0002CDF050094D1050018D105002DE9F0473E
:103DD0000C46D2B3904612680746FFF7BFFE98F82C
:103DE0000830D8F8045004467BB3DFF864A0DFF84D
:103DF00064901035002606E098F8083001369E429F
:103E000005F1100521DA55F8102C51463819002A11
:103E1000F4D00A3405F088F8272CEDDD3B19B9F809
:103E200000203A5399F802209A70384605F024F998
:103E300001463846FFF73CFA98F8083001369E42B2
:103E40004FF0000405F11005DDDB2046BDE8F087EA
:103E500024D30500A4D2050010B582B00BF088F978
:103E60000446002015F0EAFD20460BF087F90023F8
:103E700001930AF0F9FE10B1134802B010BD1348C7
:103E800029F01AFF20B915F037FE30B129F032FFC2
:103E90000AF092FF0C4802B010BD01A829F020F9E9
:103EA00010B115F055FFF1E7019829F0BFF901981D
:103EB00029F026F915F04CFF29F01CFF0AF07CFFD1
:103EC000034802B010BD00BF34D80500080200202E
:103ED0003CD805002DE9F047704B93E8030082B011
:103EE00000904FF4B370ADF804100BF049F9074699
:103EF000002800F0C080DFF81492694B43604FF453
:103F0000AF71002241800270D9F800306549664DDA
:103F100000F10806A3F5AF7345F65A223046C9F8FA
:103F2000003005F001F8614B07CBC7F80E00C7F869
:103F30001210C7F816205E495E4A07F1190004F016
:103F4000F3FF00F11108FFF7B3FB034606EB08048B
:103F50001A685949204604F0E7FF08EB0004574966
:103F60006A46301904F0E0FF0444554B5549564A5F
:103F7000301904F0D9FF554A554B03CA04F1210EFC
:103F800006EB0E0C127846F80E009D4204F129044F
:103F9000CCF804108CF8082015D203F1FF38A8EBF8
:103FA000050805F1200328F00F08DFF864A1984404
:103FB000103555F8102C3019514604F0B5FF103566
:103FC00045450444F5D1621E2346B15C2C2908BF47
:103FD0001446404A08BF2346F1181068F050137980
:103FE0000B7122F0DDFF04F1040806EB0804024621
:103FF0003949204604F098FF80442AF0B7FE06EBCA
:10400000080402463549204604F08EFF344B3549FA
:1040100008EB0004321918889B783053937007F12D
:104020000A00221F04F080FF7B23BB732E4B2F4915
:104030001D889B78A21CB018B552043483704B685D
:10404000304621469847B4F5AF7F20DC082EA6F114
:1040500008000DD0124A416816F8083C91420ED172
:10406000022B12D8418859F823200A4449F823200A
:104070000BF088F81E4F384602B0BDE8F0871D4BA4
:104080001D4A1E48C92103F0CDFFFFF791FE1C4BCE
:104090001C4A1D4840F2C51103F0C4FF80D405003E
:1040A000ADDEADDE2CD305005010010034D3050089
:1040B00040D305008484060054D305006CD305006A
:1040C00080D3050098D305008CD30500ACD3050040
:1040D00080100100C0D30500C8D30500D8D3050067
:1040E000ECD30500F0D30500A4D205001C0000208D
:1040F0003CD8050000D105002CDF050018D10500D3
:10410000F8D3050024DF050010D4050014030020B7
:10411000B8D3050000B583B0034B019301A815F097
:10412000CFFC03B05DF804FB2CD005002DE9F04373
:10413000A5B00446FEF744FF2D210646204604F0B4
:1041400084FF002800F0D6802046A04905F04EFEEE
:10415000002503950446002874D09D4FDFF8CC82DB
:10416000DFF8CC9203AA3946204604F0FDFE012870
:1041700057D003AA4146204604F0F6FE012865D038
:1041800003AA4946204604F0EFFE012868D0914971
:1041900003AA204604F0E8FE01286BD08E4903AA4A
:1041A000204604F0E1FE01286CD08C4903AA204689
:1041B00004F0DAFE01286FD0894903AA204604F0F2
:1041C000D3FE012872D0874903AA204604F0CCFE12
:1041D00001287FD0844903AA204604F0C5FE0128A7
:1041E0006ED0824903AA204604F0BEFE012800F0EA
:1041F00089807F4903AA204604F0B6FE012873D0C7
:10420000EBB2BBB104AD7B492246284604F08CFEDC
:104210000146794B28465B689847002025B0BDE8E9
:10422000F083039801F012F8013075D0039801F083
:104230000DF830706549002005F0D8FD01350446C1
:1042400000288FD1012025B0BDE8F083039801F04C
:1042500027F8013068D0039801F022F8F070E9E700
:10426000039801F061F8013066D0039801F05CF822
:104270007071DFE7039801F07BF801306CD0039B8D
:10428000B371D7E7039800F0F1FF01306CD00398C9
:1042900000F0ECFFF071CDE7039801F075F8013004
:1042A0006AD0039801F070F83072C3E7039801F008
:1042B00077F8013048D0039801F072F87072B9E7CE
:1042C000039801F003F8013066D0039800F0FEFF78
:1042D0007073AFE7039801F037F8013054D00398BA
:1042E00001F032F83073A5E7039A3F2A64D886F8C4
:1042F00069229FE704AD41492246284604F014FE96
:10430000014686E7039801F057F801304CD0039836
:1043100001F052F8B0738DE704AD3949039A28468D
:1043200004F002FE014674E704AD3649039A2846BC
:1043300004F0FAFD01466CE704AD3349039A2846C0
:1043400004F0F2FD014664E704AD3049039A2846C3
:1043500004F0EAFD01465CE704AD2D49039A2846C6
:1043600004F0E2FD014654E704AD2A49039A2846C9
:1043700004F0DAFD01464CE704AD2749039A2846CC
:1043800004F0D2FD014644E704AD2449039A2846CF
:1043900004F0CAFD01463CE704AD2149039A2846D2
:1043A00004F0C2FD014634E704AD1E49039A2846D5
:1043B00004F0BAFD01462CE73F2304AD1A490093EF
:1043C0002846002304F0B0FD014622E788D405000A
:1043D0008CD40500F4D405001CD5050044D5050097
:1043E0006CD5050094D50500BCD50500E0D50500C9
:1043F00008D605004CD605001C00002064D6050038
:1044000094D40500B4D40500D4D4050078D50500B3
:1044100000D5050028D5050050D50500A0D505001C
:10442000C8D50500ECD5050014D60500ACD40500B0
:10443000C8D405002DE9384F4FF49A700AF0A0FE59
:10444000002800F0CC806D4A6D4B43604FF49674A9
:104450000021448001701368A3F5967300F10808E9
:10446000136000F10A0A8146FEF7AAFD654C664911
:10447000834645F65A22404604F056FD0FCCC8F854
:1044800012302388A8F81630C8F80A10C8F80E2091
:10449000C8F806009BF8000000F0E0FE5B49024609
:1044A00008F1170004F040FD00F117049BF8030029
:1044B00000F002FF5649024608EB040004F034FD08
:1044C00004449BF8050000F037FF5249024608EB10
:1044D000040004F029FD04449BF8060000F04EFFA0
:1044E0004D49024608EB040004F01EFD04449BF80D
:1044F000070000F0C9FE4949024608EB040004F039
:1045000013FD04449BF8080000F044FF44490246B0
:1045100008EB040004F008FD04449BF8090000F0D7
:1045200045FF4049024608EB040004F0FDFC04444A
:104530009BF80C0000F012FF3B49024608EB040018
:1045400004F0F2FC25189BF80D0000F0E3FE37495B
:10455000024608EB050004F0E7FC05449BF80E005A
:1045600000F034FF3249024608EB050004F0DCFCA1
:1045700005449BF869222F4908EB050004F0D4FCA0
:1045800005442D49AA1F504604F0CEFC2B4B7B223C
:1045900088F8062008EB050219889B7828F8051092
:1045A0009370274BA91C5B6840469847B8F1080FE9
:1045B00010D0134AD9F8041099F80030914214D160
:1045C000022B18D80D49B9F8020051F823200244F3
:1045D00041F823204846BDE8384F0AF0D3BD804655
:1045E0006FF007094FF0020A3EE7164B164A1748CC
:1045F000C92103F017FDFFF7DBFB00BF1403002008
:10460000ADDEADDEDCD605002CD30500F0D605000E
:1046100000D705000CD705001CD705002CD70500D6
:104620003CD705004CD705005CD705006CD70500CA
:104630007CD7050090D70500F0D30500A4D2050073
:104640001C00002000D105002CDF050018D105005A
:1046500010B58EB006AB0C4903AA044604F084FCE6
:10466000C3B2012B0DD0022B06D008480190FFF7F2
:10467000E1FE01980EB010BD2046FFF757FD00285F
:10468000F3D00348F2E700BFA0D7050034D80500F7
:104690003CD805002DE9F04F4FF49A7083B00AF032
:1046A0006FFD002800F0E580794BDFF830A2436011
:1046B0004FF49672002442800470DAF80020DFF88C
:1046C0000C92744FC9F80070A2F59672CAF80020D7
:1046D00000F108050AF04CFD01906F48DFF800B2C8
:1046E000DFF8008204F0C8FCDBF8042001466A48C9
:1046F0009047DBF80420694802219047674BC9F8CE
:104700000070474500932FD239461EE0B9425ED073
:10471000634B994264D0634B99426AD0624B994291
:1047200000F08D80022E0BD00A684AB128195F492B
:104730000A3404F0F9FB272C00F38A80D9F8001022
:1047400010314145C9F800100ED20E79002EDDD08F
:10475000FEF7AEFF0379D9F80010012BD6D0103147
:104760004145C9F80010F0D3FEF7A2FF0379022BF0
:1047700048D0FEF79DFF0379012B51D000992B19EA
:104780000A882A538A789A70284604F075FCDBF868
:10479000043001462846984701980AF0EFFC082D9E
:1047A000A5F108000DD03A4A416815F8083C91423D
:1047B00067D1022B63D841885AF823200A444AF86B
:1047C00023200AF0DFFC3A4803B0BDE8F08F214611
:1047D000384A2846FFF7C2F9D9F800100446A1E785
:1047E0002146354A2846FFF7B9F9D9F800100446A2
:1047F00098E72146314A2846FFF7B0F9D9F800106A
:1048000004468FE7FEF754FF8369002BB1D0FEF713
:104810004FFF214682692846FFF7D8FA0446ADE7E4
:10482000274E284FBE42A9D22146B2692846FFF73B
:10483000CDFA1C36BE420146F7D304469EE7214618
:10484000214A2846FFF78AF9D9F80010044669E79B
:1048500000992B190A882A538A789A70284604F0FE
:104860000BFC01462846FEF723FD0024D9F8001072
:1048700066E7164B074A1A6003B0BDE8F08FFFF7F2
:1048800097FA134B134A1448C92103F0CBFB00BF1E
:10489000ADDEADDE0010010084840600A4D2050068
:1048A0005010010090100100C010010024D3050039
:1048B0003CD8050044D8050058D8050078D9050033
:1048C00030110100841101001CDE050078C60020B3
:1048D00000D105002CDF050018D1050014030020CD
:1048E0001C000020301101002DE9F04F824683B0FA
:1048F0004FF49A700AF044FC002800F0A5804FF4B1
:10490000967242806C4F6D4B4360002202703B6890
:104910006B4CDFF8C4916B4EA3F596733B6000F1CE
:104920000805C4F800900AF023FCB145C4F80090D3
:1049300080464B466AD2A9461D460BE0256828688A
:1049400020B1514604F08EFB00283ED01035B54210
:10495000256011D22D79FEF7ABFE0379AB42EDD085
:10496000002DEBD0FEF7A4FE0379012BE6D02568DD
:104970001035B5422560EDD34D46DFF870C12E46A7
:104980000CF1200E64460FCC744506F110060CF1B4
:10499000100C46F8100C46F80C1C46F8082C46F88B
:1049A000043CEFD1BCF80430DCF80000B3809CF884
:1049B00006303060B371284604F05EFB424B434C36
:1049C0005B6801462846984723E04149DFF8F8B084
:1049D0005246484604F0A8FA484604F04DFBDBF87E
:1049E000043001464846984723684D46D3F80C905A
:1049F0000D21484604F029FB70B3484604F03CFB07
:104A0000DBF804300146484698472368B342B4D2E5
:104A1000304C40460AF0B2FB082DA5F108000DD03D
:104A2000264A416815F8083C91423DD1022B41D8F5
:104A3000418857F823200A4447F823200AF0A2FBB4
:104A4000204603B0BDE8F08F224C1D4B224A1A606D
:104A5000204603B0BDE8F08FDFF894A01F4ACDF8E0
:104A6000048001E009F14D094E214B46284604F02F
:104A700027FA8046284604F0FFFABAF800102952B7
:104A80002B189AF802109970284604F0F5FADBF812
:104A90000430014628469847B8F14D0F0F4AE1DC33
:104AA000DDF804802368B1E70D4B0E4A0E48C9219A
:104AB00003F0B8FAFFF77CF914030020ADDEADDE99
:104AC00078C60020301101001C00002034D80500F9
:104AD000ACD705003CD805000010010058D20500F5
:104AE00000D105002CDF050018D10500B4D7050062
:104AF000A4D2050030B587B00C46154611496B4667
:104B000003AA04F031FA01280FD002280AD19DF837
:104B100000302A4621467BB90DF10100FFF7E4FE83
:104B200007B030BD002007B030BD2A46214603A89B
:104B3000FFF7B0FD07B030BD6846FFF7D5FE07B000
:104B400030BD00BFDCD70500FEF7C4BD704700BF15
:104B500000B583B0FFF7F8FF019010B101A814F081
:104B6000AFFF134B134D5C6818E0FEF7A1FDC3685F
:104B70001BB1FEF79DFDC36898470020FEF79EFD20
:104B80000AF01AFE0098FEF799FD009B9B68002032
:104B900003B198472B6998470AF00EFEA047C82139
:104BA000684614F099FF0130DFD1FFF7CFFFF1E73E
:104BB00094CA050018CB050000B541F2D40083B0BB
:104BC0000AF0DEFA034670B11149124A5A6041F206
:104BD000CC0C0020A3F802C018700A68A2F5865217
:104BE0000C3A08330A60052041F2CC01CDE90010EF
:104BF000094A0A4800210AF03FFD10B103B05DF8F0
:104C000004FB3821012003B05DF804EBFCF720BE63
:104C100014030020ADDEADDE34DF0500514B010092
:104C200030B585B0002305460C460093FEF7D4F955
:104C300001466B46284601AA0D46134904F094F933
:104C4000C3B2022B0AD1012C14D875B1CCB104F037
:104C50000100FEF7C7F90D4805B030BD0C482946E4
:104C600001F0EEF8094805B030BD002CEFD0FCF79C
:104C70000BFCECE70748214601F0E2F8064805B0D6
:104C800030BDFCF725FCE2E7E0D105003CD805008B
:104C90003CDF05001CD2050034D805002DE9F8439F
:104CA00009F0E2FF00285BD105464FF402700AF0DC
:104CB00067FA044600285FD04FF40072DFF81491C1
:104CC000364B428005704360D9F80030A3F500737D
:104CD00000F10808C9F800300AF04AFA80220646B6
:104CE0004146284609F070FC054630460AF046FA6F
:104CF000002D3CD12A482B4F2B4E01F0A1F8A26881
:104D00002948294601F09CF82C464546384601348E
:104D100001F096F855F8042F2146304601F090F83E
:104D20007F2CF3D12148224C01F08AF8B8F1080F0A
:104D3000A8F108000DD0194A416818F8083C9142C2
:104D400025D1022B1DD8418859F823200A4449F85F
:104D500023200AF017FA0AF02FF82046BDE8F8835E
:104D6000144C154801F06CF82046BDE8F883134850
:104D7000104C01F065F8D9E711480E4C01F060F8CD
:104D8000E9E7104B104A1148CA2103F04BF9104BC8
:104D90000D4A0E48C92103F045F900BFADDEADDE76
:104DA000B0DF050008D70500C4DF0500D8DF050027
:104DB0003CD8050034D8050048DF050090DF050029
:104DC00068DF050094D105004CE0050018D105000E
:104DD00000D10500140300202DE9F0432DED028BD6
:104DE0000024B7B03D222146054606A8059403F0ED
:104DF000A3F99FEDB37B7C22214617A88DED027BA2
:104E00000194169403F098F909F02EFF30B1AE4CDE
:104E1000204637B0BDEC028BBDE8F08328F04CFF94
:104E200004460028F3D1A949284604F0DFFFA7492A
:104E3000204604F0DBFF4022014605A804F038F9C3
:104E40009DF814305BB1A24805A9C25C02F00302D0
:104E5000012A30D00B7011F8013F002BF5D18022D0
:104E600016A905A828F0C0FE071E2BDB97490020D5
:104E700004F0BCFF0446002800F0EF80042F2BDC78
:104E80000022022F114600F39A8005F08FF83A466F
:104E9000019001A905A828F071FE0646002800F03F
:104EA000C18001998B48884C00F0CAFF28F022FF8E
:104EB00009F082FFACE720330B7011F8013F002BA3
:104EC000C3D1CCE78448804C05A900F0B9FF28F095
:104ED00011FF09F071FF9BE7082F47DD07F108007C
:104EE0000AF04EF9002800F0DD807C4A7C4B4780B8
:104EF0000025057043601368DFED7A8A9FED7A8A9A
:104F0000DB1B136000F1080600F106084FEA670991
:104F100011E0BEEEEA0A10EE103A1BB228F8023F8A
:104F20006A49002004F062FF01354D45044600F057
:104F30008E8000287FD02378302B204604D16378E0
:104F400003F0DF03582B51D0002104F0F3FEB5EE3F
:104F5000C00AF1EE10FADCDA60EE687A77EE887A51
:104F6000FDEEE77A17EE903A1BB2D7E70022114622
:104F700005F03CF9CDE902010DF1080800263A469A
:104F8000414605A828F0FAFD002835D0D8F80010D1
:104F900050484D4C00F054FF28F0ACFE09F00CFFD7
:104FA000002E3FF435AF082EA6F108000ED10AF00E
:104FB000E9F8204637B0BDEC028BBDE8F08305F080
:104FC00073F80DF1040801900026D8E7444A4168BF
:104FD00016F8083C91426DD1022B65D83F494588AF
:104FE00051F823202A4441F82320E0E7002211460B
:104FF00004F0DCFF03B291E73C4805A900F020FF74
:105000007D1E0135DFF8F890454415F8011D48462E
:1050100000F016FF4545F8D13548364C394600F0CA
:105020000FFFB9E7314805A900F00AFF7D1E7FB3E5
:105030000DF10408E5E72B463A4605A92E48224C17
:1050400000F0FEFE28F056FE09F0B6FEABE72B4856
:1050500005A900F0F5FEB04691E7244805A900F047
:10506000EFFE7D1E57B116AB254E5C1914F80119E1
:10507000013D304600F0E4FE6B1CF7D139461C4878
:105080001C4C00F0DDFE28F035FE09F095FEBFE671
:1050900031461748174C00F0D3FE28F02BFE09F0DC
:1050A0008BFEB5E617480EE7174B184A1848CA2179
:1050B00002F0B8FF174B154A1548C92102F0B2FF9C
:1050C000000000000000000034D80500F8CC050006
:1050D000B402060038E1050054E005001403002086
:1050E000ADDEADDE000000450000804778E0050041
:1050F00080E005003CD80500C8E0050010E105008F
:1051000090E0050098E0050094D1050004E2050058
:1051100018D1050000D105002DE9F04FB1B00021F4
:105120007C2211A8109103F007F809F09DFD18B139
:105130001F4831B0BDE8F08F28F0BEFD0028F7D140
:10514000804669461FFA88F0DFF870A0194EDFF834
:10515000709028F04DFC10BB6946504610AD00F031
:105160006FFE80222946684628F03EFD071E09DDB5
:105170007C1E2C442178304600F062FEAC4204F1E3
:10518000FF34F7D13946484608F1010800F058FECF
:1051900069461FFA88F028F02BFC0028DCD028F0A4
:1051A000A9FD09F009FE044831B0BDE8F08F00BF49
:1051B00034D8050090E005003CD8050078E00500F3
:1051C00080E00500F0B5C1B068460AF0BDF80A21DC
:1051D00004A80AF041F8144A14490646144800F09D
:1051E0002FFE002E0DDD134F04AC00256369E2682D
:1051F00021463846013500F023FEAE4204F1180482
:10520000F4D1039A0C490D4800F01AFE019A0C499A
:105210000A4800F015FE0948029A0A4900F010FEFB
:10522000094841B0F0BD00BF0CE2050018E20500DE
:1052300024E2050030E2050040E205004CE20500F2
:1052400058E205006CE205007CE20500052803D069
:10525000092818BF4FF0FF30704700BF052803D062
:10526000092818BF4FF0FF30704700BF40F252339B
:10527000984207D041F69A23984214BF4FF0FF306E
:10528000012070470020704738B1012841F69A2369
:1052900014BF4FF0FF301846704740F2523070474D
:1052A00004381C289ABF034B53F820004FF0FF30FE
:1052B000704700BFA0E2050003289ABF024B53F8D5
:1052C00020004FF0FF30704714E30500B0F5807FF9
:1052D0001ED005DC402817D0802809D10220704755
:1052E000B0F5806F12D0B0F5006F06D10620704780
:1052F000203818BF4FF0FF307047B0F5007F14BF63
:105300004FF0FF30042070470120704705207047A0
:105310000320704706289ABF024B53F820004FF035
:10532000FF30704784E20500A0F10903042B28BF79
:105330004FF0FF30704700BFA0F10903042B28BFD6
:105340004FF0FF30704700BF032804DD082818BF66
:105350004FF0FF30704740EAE0707047032804DDEB
:10536000082818BF4FF0FF30704740EAE0707047E0
:10537000042828BF4FF0FF30704700BF042828BF23
:105380004FF0FF30704700BF022828BF4FF0FF30BA
:10539000704700BF022828BF4FF0FF30704700BFA2
:1053A000022828BF4FF0FF30704700BF022828BFF7
:1053B0004FF0FF30704700BF012804DD032818BFFD
:1053C0004FF0FF30704740EAE0707047012804DD7D
:1053D000032818BF4FF0FF30704740EAE070704775
:1053E000704700BFFDF764BFF8B5002839D00D46FF
:1053F000002938D0846832BB1CB31C4F236AEBB140
:10540000AB421ED06E1E03F1FF3E00E0CBB116F89A
:10541000013F1EF801CFFA5C02F00302012A17F8DF
:105420000C2002F00302184608BF03F12000012AF5
:10543000614608BF0CF120018842E7D02468002CA7
:10544000DCD12046F8BD002CFBD0216A284629B1CA
:1054500003F008FE0028F4D02468F4E70C46204648
:10546000F8BD0446EDE70C46EBE700BFB4020600CA
:105470002DE9F0470A680F468968545C8046222C63
:1054800001F1010002EB0005114418D17E68B04221
:1054900015D22C46002003E00134A31AB3420ED2E9
:1054A0002378222B15D05C2BF6D10134A31AB342FA
:1054B00005D20134A31AB34200F10100F0D32DB19B
:1054C0003B68EB1A0020BB60BDE8F0872846BDE8CA
:1054D000F087611AC0F101003B6908449847002831
:1054E000EDD0A54280F05581DFF854E302464FF03D
:1054F0000C0C05E002F8013B0135AC4240F24A8158
:105500002B785C2BF6D1661B002E2ADD6B78752B71
:1055100027D85B2B1FD9A3F15C01192921D8DFE81B
:1055200011F03301200020002000200020002D0178
:105530002000200020002801200020002000200062
:1055400020002000200022012000200020001C015B
:10555000200016012300222B00F016812F2B00F0D3
:1055600013817B699847ABE7052EFADDA978A1F195
:105570003003DEB2092E0BD9A1F14103052B40F215
:105580002381A1F16103052B00F23881A1F15703BA
:10559000E978A1F130065FFA86F9B9F1090F4FEA0F
:1055A000031340F20481A1F14106052E40F20F8160
:1055B000A1F16106052E00F2218157390B442979AA
:1055C000A1F130065FFA86F9B9F1090F4FEA03132A
:1055D00040F2EF80A1F14106052E40F2FB80A1F1DF
:1055E0006106052E00F20A8157390B446979A1F151
:1055F00030065FFA86F9B9F1090F4FEA031340F25A
:10560000DA80A1F14106052E40F2E780A1F16106A2
:10561000052E00F2F38057390B44A3F55C41B1F538
:10562000806F9ED3A3F55841B1F5806F80F0C5809F
:10563000A91D611A052994DDA9795C2991D1E9791F
:1056400075298ED1297AA1F130065FFA86F9B9F170
:10565000090F40F2E180A1F14106052E40F2E880F9
:10566000A1F16106052E3FF67CAF57390E01697A2C
:10567000A1F130095FFA89FABAF1090F40F2D2803C
:10568000A1F14109B9F1050F40F2CF80A1F1610903
:10569000B9F1050F3FF665AF57393144AE7AA6F13F
:1056A00030095FFA89FABAF1090F4FEA011140F2A5
:1056B000B780A6F14109B9F1050F40F2BE80A6F10D
:1056C0006109B9F1050F3FF64CAF573E3144EE7A10
:1056D000A6F130095FFA89FABAF1090F4FEA011110
:1056E00040F29C80A6F14109B9F1050F40F2A28079
:1056F000A6F16109B9F1050F3FF633AF573E3144CA
:10570000A1F55C46B6F5806FBFF42BAF0EEA83239C
:10571000C1F30901194301F03F0601F5803366F03A
:105720007F06C1F38511D67061F07F06C3F30531A2
:1057300061F07F01967051704FF00409990CF026CA
:105740000C233143C9B211701D444A44D5E60923E4
:1057500002F8013B02231D44CFE60D2302F8013B72
:1057600002231D44C9E60A2302F8013B02231D441B
:10577000C3E6022302F801CB1D44BEE6082302F86B
:10578000013B02231D44B8E602F8013B02231D44FD
:10579000B3E60246002313701023C8F80C303B68B0
:1057A000C8F81000E31A0133BB6001208CE63344D3
:1057B00005E733441AE733442FE77F2B10D8D9B2DB
:1057C0004FF001090623BEE7A1F13703E0E63739C0
:1057D0000B44F4E637390B4408E737390B441CE730
:1057E00003F03F01B3F5006F61F07F0108D2517003
:1057F0004FF002099909C0260623A2E70023DEE73D
:105800009170C3F3851161F07F0151704FF003096E
:10581000190BE026062394E7314627E749446FE752
:10582000494454E709EB060138E73739314435E795
:1058300037391BE7373E314462E7373E314446E7AC
:1058400000FC0F00F8B170B50F4E044625462468E1
:10585000EB68D9050BD4A86820B1FFF7F3FFEB681C
:10586000DA0504D4286910B173689847EB689B0582
:1058700003D4286A08B17368984773682846984724
:10588000002CE3D170BD7047240000200000000010
:10589000002954D02DE9F04F0F6893B00C469FB308
:1058A0008D68D1F8048005F10409C14506462FD85A
:1058B00007EB050B9C490422584603F0E5FB002842
:1058C0003FD005F1050AD04505D398490522584631
:1058D00003F0DAFB38B396495846042203F0D4FBB0
:1058E00030B3454510D27B5D222B07EB050100F05C
:1058F000A2802D2B2DD0A3F13002092A29D95B2BB0
:1059000000F0AD807B2B79D0002013B0BDE8F08F84
:1059100005F1050AD045E4D384490522781903F03E
:10592000B3FB0028DDD10120F060C4F808A0ECE74B
:1059300001200223F3607061C4F80890E5E70020BD
:10594000704704230120F360C4F8089013B0BDE849
:10595000F08FA8EB05080DF1080A013D00232F4444
:10596000019350462E2517F8012F452A15D82A2ACB
:1059700015D9A2F12B011A2911D8DFE801F0361050
:10598000365A10363636363636363636361010102B
:1059900010101010101010103600652A25D0483352
:1059A0006B44002503F8405C01A9504604F0B6F9A9
:1059B000019F574559EC108BA6D086ED060B58A3D6
:1059C000D3E9002310EE100A494646F04DFD0028A9
:1059D00038D06FF000437361A368A7EB0A0A08226E
:1059E0005344F2600120A3608FE7027001333F2B24
:1059F00000F10100D3D04345B5D1D0E7E368B3F55A
:105A00007A7F81D20133E3607B5D7B2B7FF47CAFB7
:105A100004E011F8013F202B00F2D8800135A845A1
:105A2000A560F6D8A84500F08E81A268013AA26070
:105A30006AE70570DAE72146304613B0BDE8F04F5B
:105A4000FFF716BD3B4B00224046494646F002FD9B
:105A5000002800F08E804FF000437361BCE7E368DC
:105A6000B3F57A7FBFF450AF0133E3607B5D5B2B0E
:105A70007FF44AAF6A1C9045A26005D89AE0984529
:105A8000A36040F299801A4611F8010F202802F114
:105A90000103F4D9904500F093809045C6D9BB5CD2
:105AA0005D2B00F05381013A0027A2603D46236937
:105AB00028209847B8460746002800F03D81282254
:105AC000002102F039FB002D5FD0C8F80070C7F844
:105AD0000480A0682268411CA1607AB1D4F804C097
:105AE0008C454CD9024403E09C45A36049D9194632
:105AF00012F8010F202801F10103F5D9214638469B
:105B0000FFF7C6FE002850D0D4F800E0BEF1000F29
:105B100059D0D4E901C2944539D9511E71440FE0DE
:105B20000000C0FFFFFFDF4124E305002CE3050078
:105B300034E305000000E0C19C45A3602AD01A466A
:105B400011F8010F202802F10103F5D994452CD951
:105B50001EF802302C2BAAD05D2B26D1D4E90232BC
:105B60002021013A0133E2600120C6E90251A3601D
:105B7000CBE64046494646F0A1FC70612CE70B4657
:105B800001469C4508BFA160B8E73D46A1E70CD19E
:105B90000CF1FF32A260D9E700F0C680D8F81020DF
:105BA000C8F820200023C8F810302846FFF74AFE26
:105BB0000020AAE613462A4698457FF438AF4246AD
:105BC000013AA26069E7D4E901C2BFE7A84500F045
:105BD000BA80A36898451A467FF628AFFA5C7D2AFA
:105BE00000F0B6804FF00008013BA36045464746F1
:105BF000236928209847C1468046002800F09C80F1
:105C00002822002102F098FA002D00F08B80C9F8BC
:105C10000080C8F80490A0682268411CA1607AB195
:105C2000D4F804C08C4577D9024403E09C45A360B6
:105C300074D9194612F8010F202801F10103F5D992
:105C400021464046FFF714FC0028AED0D4F800C02F
:105C5000BCF1000F74D0D4E9010383429CD25A1ED8
:105C6000624403E001339842A3605DD012F8011F43
:105C70002029F7D9D8F81020C8F820209842C8F871
:105C8000107092D91CF803103A290CEB03028CD146
:105C90000133A360BCF1000F06D10CE012F8011F24
:105CA000202903D80133A3609842F7D8984204BF53
:105CB00000F1FF30A06021464046FFF7E9FD0028D3
:105CC0003FF473AFD4F800C0D4E90103BCF1000F76
:105CD0000CD083422BD25A1E624403E0013383422C
:105CE000A36026D012F8011F2029F7D98342BFF400
:105CF0005CAF1CF803302C2B3FF47AAF7D2B7FF484
:105D000054AFA368E268013AE26001334022C6E979
:105D100002520120A360F8E50B4601469C4508BFEE
:105D2000A1608DE7454676E7431EA360A2E77FF4B6
:105D30003CAF431EA360D9E7002D3FF4E5AD34E747
:105D4000D4E9010396E7013DA56042E7002505E798
:105D50000025D7E7F0B5364E002789B0CDE90277A8
:105D6000CDE90477CDE90677C6E900770446002837
:105D700041D0019003F080F92E4B0130029093E85E
:105D8000070008AB03E907000346282098470546AB
:105D900048B33946282202F0CFF90199E1B1039ABC
:105DA000002A43D1DDF808C0BCF1040F2ED8BCF1A5
:105DB000000F24D0013A0CF1FF370A440F4402E0EF
:105DC000BA4203931CD0134612F8010F0233202865
:105DD000A3EB0103F4D901A92846FFF759FD58B9EF
:105DE0002846FFF72FFDDDE90223934201D3CAB114
:105DF000531EC6E900430025284609B0F0BD63469E
:105E0000634504BF03F1FF330393E4E70B78EF2B03
:105E1000D0D14B78BB2BCDD18B78BF2BCAD10322ED
:105E20000392C7E71346C6E90043E4E73946D3E7E0
:105E30007CC60020240000200022FFF7D5BA00BF56
:105E40000FB430B5124C83B006ABD4F8000253F84F
:105E5000042B0193402104EB801004F0FDF9D4F8E9
:105E6000005204EB8515284603F006F9094B01465C
:105E70005B6828469847D4F80032013303F00703E3
:105E8000C4F8003203B0BDE8304004B0704700BF32
:105E900084C600201C000020014B1870704700BF12
:105EA00088C80020014B1878704700BF88C80020C0
:105EB00010B5064CE36D9847054809F023FE00F045
:105EC00083FDA36BBDE81040184700BF0C02002003
:105ED0008CC8002030B583B000F09CFC48BB09F0B2
:105EE00021FB204C606070B340F6080009F048F9CF
:105EF00060B14FF4006141801B4A1C4B436000219C
:105F000001701368A3F50063083013604FF4006359
:105F10000125CDE90035A0600346154A154800214A
:105F200009F0AAFB206098B103B0BDE8304000F052
:105F300039BD01460120FBF78BFC09F0F3FA094C4F
:105F400060600028D0D138210120FBF781FCCBE72D
:105F500038212846FBF77CFC03B0BDE8304000F058
:105F600021BD00BF8CC8002014030020ADDEADDED3
:105F700054E30500216201002DE9F04F85B005468C
:105F80000E9C03930E461746002C40F0D080062945
:105F90004FF49A7086BF4FF001080626A04609F01C
:105FA000EFF8002800F004818D4B43604FF49673A6
:105FB0004380DFF86492DDED037A00230370F8EE8E
:105FC000E77AD9F8003000F10804A3F5967317EECC
:105FD000900AC9F8003045F069FF7FA3D3E9002398
:105FE00045F0BCFF46F06AFA7E4945F65A228246E1
:105FF000204602F099FF204603F03EF87A4B04EB6E
:10600000000C024603CB1B88A050CCF80410ACF85F
:1060100008306EB1DFF804B22E44204603F02CF8AD
:1060200015F8012B2044594602F07EFFAE42F4D110
:10603000B8F1000F71D1204603F01EF87B78019370
:10604000BB7800930138FB783A796849204402F024
:106050006BFF204603F010F865495246204402F0D9
:1060600063FF204603F008F8109B62495A420F9BD9
:1060700081FB02655B42D617C6EB651681FB0357B1
:10608000DD17C5EB6715642707FB16220192109AEE
:1060900007FB153381FB0225109AD217C2EB65125C
:1060A00000920F9A81FB02210F9AD217C2EB611264
:1060B0002044514902F038FF204602F0DDFF4F4AEC
:1060C00003461068E050204602F0D6FF4C49821F7C
:1060D000A01C02F029FF7B23A371204602F0CCFF15
:1060E00001462046FDF7B0F8082C0546A4F108004B
:1060F0000DD03B4A416814F8083C914263D1022B11
:106100005BD8418859F823200A4449F8232009F034
:1061100039F8284605B0BDE8F08F204602F0ACFF04
:10612000384B221819889B782152937083E74FF4DB
:10613000187009F025F800283AD0294B4360DFF8A1
:10614000D890DDED037A4FF416734FF000084380CA
:1061500080F80080F8EEE77AD9F8003000F1080402
:10616000A3F5167317EE900AC9F8003045F09EFEAD
:1061700019A3D3E9002345F0F1FE46F09FF9194930
:1061800045F65A228246204602F0CEFE204602F014
:1061900073FF154B04EB000C024603CB1B88A05089
:1061A000CCF80410ACF80830002E7FF433AF42E78F
:1061B0004725284605B0BDE8F08F134B134A144815
:1061C000CA2101F02FFF134B104A1148C92101F0D9
:1061D00029FF00BFAFF300800000000084D7F73F25
:1061E000ADDEADDE2CD3050060E3050078E30500ED
:1061F00098E305001F85EB51A0E3050038EA050090
:10620000F0D3050074E3050094D10500D4E3050044
:1062100018D1050000D10500140300206CE305002F
:106220002DE9F0418AB001E009F0EAFA00F0E0FA65
:1062300004460520002CF7D0324D0027EF6008F00F
:1062400097FF0646384621F075F8304608F096FF6D
:10625000EB684FF0FF3209A9D3B9686809F0DEF99D
:106260000028F5D1099B012B12D008F081FFB4F86A
:106270008279B4F88069F61B08F080FF330715D1E6
:1062800009F09AFAEB684FF0FF3209A9002BE4D02D
:106290000223EB60EB68022B05D1012009F0B0FA74
:1062A000EB68022BF9D00AB0BDE8F081982307FB18
:1062B00003F304EB030803F18102E15C079122443C
:1062C0009E1CB8F994300693059200F09DFAD8F818
:1062D00090300293D8F88C30079901932644013707
:1062E000DDE90523009007F00F073046FFF744FE75
:1062F00008F03EFFA4F8827908F040FFFCF726FF83
:10630000BEE700BF8CC8002008B5074B1A6822B151
:106310005868022109F078F900B908BDBDE80840C5
:106320003B210120FBF794BA8CC80020024B18686F
:10633000003818BF012070478CC8002000B502202B
:1063400083B000F05BFA044B019301A813F0B8FB93
:10635000024803B05DF804FB301101003CD8050091
:106360002DE9F84F4FF49A7008F00AFF002800F06A
:106370009F804FF49672DFF8A491DFF8A4B14280B9
:1063800000230370C0F804B0D9F80030504DA3F5D5
:10639000967300F108080746C9F8003008F0E8FED7
:1063A000824600F025FA4B49044645F65A224046FB
:1063B00002F0BAFD0FCDC7F81A302B78BB77C7F8BB
:1063C0000E00C7F81210C7F81620B4F88829424901
:1063D00007F11E0002F0A8FD00F11606B4F88A29A4
:1063E0003E4908EB060002F09FFD064494F88C2914
:1063F0003B4908EB060002F097FD0644B4F88429F7
:10640000384908EB060002F08FFD3518B4F88629EC
:10641000354908EB050002F087FD0544B4F88E29E4
:10642000324908EB050002F07FFD2E18B4F89029E0
:106430002F4908EB060002F077FD064494F89229F4
:106440002C4908EB060002F06FFD3518D4F89C29A2
:10645000294908EB050002F067FD05442749AA1FFA
:1064600007F10A0002F060FD7B23BB73404602F097
:1064700003FE234B08EB00021C889B7828F80040A1
:106480009370204BA91C5B68404698477A683B781C
:106490005A4516D1022B0ED8798859F82320384650
:1064A0000A4449F8232008F06DFE504608F066FEC5
:1064B0001548BDE8F88F154B154A1648CA2101F05A
:1064C000B1FD154B124A1348C92101F0ABFD00BFC5
:1064D000E8E305002CD30500FCE305000CE405000F
:1064E0001CE405002CE4050038E4050044E4050044
:1064F00054E4050060E405006CE40500F0D30500F9
:10650000A4D205001C0000203CD8050094D1050051
:10651000C8E5050018D1050000D1050014030020CE
:10652000ADDEADDE08B5054B186800F6841021F02D
:106530009BF8BDE80840002020F0FCBEA0C8002069
:106540002DE9F04F9A4B2DED068B1C6887B0002C7F
:1065500000F01781B4F88059B4F882396E1C9B1B87
:106560001B070DD1FFF7D0FE04F6841021F07CF854
:10657000002007B0BDEC068BBDE8F04F20F0DABE7E
:106580004FF0980808FB05F8074608F18100204401
:10659000FF2120F093FE21F01FF804EB08033A6876
:1065A000A3F89400C3F88820D4F89C390133C4F8C8
:1065B0009C393A7A12F0020200F0D780002324F8C6
:1065C0000830FCF701FD804620F01CFD794B9FED63
:1065D0007A7ADFED7A7A20F0100098424FF00003CB
:1065E000684614BF17EE907A17EE107A8DF81530C2
:1065F00021F02EF99DED007A98F80530DFED706AF4
:10660000DFED707A9DF814B0F8EE479A9DED047AAC
:1066100069EEA99AB8EE477A082B87EE297A019B92
:106620004FEA93030BEB4B0B4FEA4B0B5FFA8BFBE1
:1066300006EE103A029B4FEA9303B8EEC68A06EEC6
:10664000103A039B4FEA9303B8EEC69A06EE103A4F
:1066500017EE100A94BF16EE908A17EE908AF8EEA5
:10666000C68A45F023FC41EC100B06F035FE40468F
:1066700059EC108B45F01AFC0246584692468B4660
:1066800045F002FC02460B4643EC1A2B40464E4BAB
:106690004946002245F062FC52465B4645F0A8FAA6
:1066A00080463846894645F001FC28EE088A29EEE6
:1066B000099A024668EEA88A404638EE098A58ECE4
:1066C0001A7B0B46494645F093FA38EE288A1AEEB3
:1066D000102A434645F08CFA45F038FFC8EE297A77
:1066E0000AEE100A17EE900A45F0E0FB41EC100BA1
:1066F00006F0F2FD344B51EC100B002245F02EFC5D
:1067000052465B4645F074FA3A46434645F070FA05
:1067100045F01CFF9FED2D7AB4EEC7AAF1EE10FAFA
:1067200007EE900A04D4B5EEC0AAF1EE10FA2DDD02
:1067300000229FED267AF4EEC77AF1EE10FA04D427
:10674000F5EEC07AF1EE10FA29DD0023982101FB65
:106750000545C5E92323FFF7E9FD00283FF402AF13
:1067600006F00F06A4F88069FCE6F9887F2928BFA7
:106770007F2108F1020024F80810204420F0F4FEE4
:106780001FE707B0BDEC068BBDE8F08F9FED107AD8
:106790002AEE07AABDEECA7A17EE102AC9E79FEDC6
:1067A0000C7A67EE877AFDEEE77A17EE903ACDE73E
:1067B000A0C800200203CADECDCC7C4233B34C42D9
:1067C0009A99E3C26666F3C2000024400000F0C25A
:1067D0000000C84208B5054B186800F6841020F088
:1067E00043FFBDE80840002020F0A4BDA0C8002061
:1067F000014B1868704700BFA0C80020014B18600B
:10680000704700BF9CC80020014B1868704700BF4C
:106810009CC8002070B5544C8CB023689847A3687E
:106820009847236E0120984763689847002840F0F6
:1068300095804E4E3568002D70D04FF41A620021BD
:10684000284601F079FCFCF7BFFB23690646984710
:1068500008F08EFC0546002020F006FC00285AD1E6
:10686000A36D1BB11B69DA68186A9047636D98477E
:1068700001286CD0636D9847022843D100233C481F
:10688000B373FFF7DDFA304620F02CFC002859D115
:10689000002020F059FE002020F056FD002108467F
:1068A00020F016FE30220021684601F045FC03204E
:1068B00020F000FF032020F0C7FB2E492E4A2F4B6B
:1068C00003936846CDE9011220F086FD02220021E3
:1068D0002B482C4C20F09EFD012020F091FE012041
:1068E00020F0B2FEFCF76CFB90F8690220F0F6FE97
:1068F000E368984723699847284608F03FFC002042
:106900000CB070BD20F07EFB01461F48FFF798FADF
:10691000FF200CB070BD07200CB070BD40F6A81071
:1069200008F02EFCB8B14FF41A624280174B184A97
:1069300005704360136800F10805A3F51A6335601C
:1069400013607AE707210120FAF782FFA0E71148D8
